:1000000012C01FC01EC01DC01CC01BC01BC019C019
:1000100018C017C016C015C014C013C012C011C03C
:1000200010C00FC00EC011241FBECFEDCDBF10E019
:10003000A0E6B0E001C01D92A936B107E1F722D0D9
:1000400070C1DECF1F920F920FB60F9211248F93C3
:10005000809168008F5F80936800809166008F5F59
:1000600080936600809165008F5F8093650080912A
:1000700067008F5F809367008F910F900FBE0F9086
:100080001F901895DF92EF92FF920F931F9310BE6F
:1000900082E083BF12BE89B7826089BFBB98C39AD2
:1000A000BA98C29AB998C19AB898C09A81B3837C19
:1000B00081BB82B3837C82BBBF9ABE9ABD9ABC9A35
:1000C000889A909AC798C698C598C498789460E022
:1000D00050E040E030E0FF2400E0A0E0F0E0EE245B
:1000E000DD2471E0E1E011E0B1E02FEF90E021507C
:1000F00099F49F5F913009F476C0923009F4B2C050
:10010000933009F4D3C0943009F4E4C0953009F475
:10011000E9C0963009F4EEC0B39B69C0662339F498
:10012000713009F4BAC0723009F4D0C061E0B29BFA
:100130006BC0552339F4E13009F4A7C0E23009F46B
:10014000C1C051E0B19B6CC0442339F4113009F4B3
:100150008CC0123009F4AEC041E0B09B6DC03323B7
:1001600039F4B13009F489C0B23009F4A7C031E0E4
:10017000723059F0F894809168007894FF2029F04B
:100180008F3408F069C0FF24F394E23051F0F89402
:10019000809166007894002321F08F3408F05FC0CE
:1001A00001E0123051F0F894809165007894AA2310
:1001B00021F08F3408F04BC0A1E0B23009F497CFA2
:1001C000F894809167007894FF2309F490CF8F34DE
:1001D00008F440C0C498F0E0215009F09DCF9F5F23
:1001E000913009F08ACFE0B29098B39997CF662307
:1001F00009F49DCFC79AF89410926800789460E053
:10020000FF24F394B29995CF552309F49BCFC69A56
:10021000F89410926600789450E001E0B19994CF80
:10022000442309F49ACFC59AF89410926500789403
:1002300040E0A1E0B09993CF332309F499CFC49A59
:10024000F89410926700789430E0F1E091CFC5986F
:10025000A0E0B3CFF1E04BCFC798FF2496CFC6986C
:1002600000E09FCFD0B2909A57CFC59AF8941092E1
:100270006500789441E0A1E070CFC49AF8941092A0
:100280006700789431E0F1E073CFC69AF894109249
:100290006600789451E001E055CFC79AF894109227
:1002A0006800789461E0FF24F39441CFE2FC16C02B
:1002B00070E032CFC59841E0A0E04FCFC49831E064
:1002C000F0E056CFC69851E000E03CCFC79861E01F
:1002D000FF242DCFE3FC0AC0E0E01ECFD2FC0FC00C
:1002E00072E01ACFE4FC0DC010E016CFD3FC0DC0B5
:1002F000E2E012CFE5FC0BC0B0E090E00DCF71E082
:100300000BCFD4FC09C012E007CFE1E005CFD5FC4C
:1003100005C0B2E090E000CF11E0FECEB1E090E089
:06032000FBCEF894FFCFB4
:00000001FF
