:1000000012C01FC01EC01DC01CC01BC01BC019C019
:1000100018C017C016C015C014C013C012C011C03C
:1000200010C00FC00EC011241FBECFEDCDBF20E009
:10003000A0E6B0E001C01D92A936B207E1F722D0D8
:1000400063C1DECF1F920F920FB60F9211248F93D0
:10005000809168008F5F80936800809166008F5F59
:1000600080936600809165008F5F8093650080912A
:1000700067008F5F809367008F910F900FBE0F9086
:100080001F90189510BE82E083BF12BE89B78260B0
:1000900089BFBB98C39ABA98C29AB998C19AB898BE
:1000A000C09A81B3837C81BB82B3837C82BBBF9ABD
:1000B000BE9ABD9ABC9A889A909AC798C698C598D5
:1000C000C498789410E08FEFC1E0B1E0A1E0F1E0D6
:1000D000F12C00E0E0E070E060E050E040E030E073
:1000E00020E090E0815009F465C0B39B7EC091117F
:1000F00006C0F13009F4C8C0F23009F4A5C091E09F
:10010000B29B7FC0211106C0A13009F4CDC0A2303E
:1001100009F4A2C021E0B19B80C0311106C0B1300A
:1001200009F4AAC0B23009F49BC031E0B09B81C091
:10013000411106C0C13009F4AFC0C23009F488C013
:1001400041E0F23059F0F894D0916800789455234A
:1001500029F0D83208F48AC0C79850E0A23059F08C
:10016000F894D09166007894662329F0D83208F488
:100170007FC0C69860E0B23059F0F894D091650025
:100180007894772329F0D83208F474C0C59870E0C9
:10019000C23009F4A7CFF894D09167007894EE2389
:1001A00009F4A0CFD83208F45FC0C498E0E08150D1
:1001B00009F09BCF1F5F113009F47EC0123009F4A3
:1001C00084C0133009F47BC0143009F48FC015309B
:1001D00009F486C0163009F088CF10E005FF7EC014
:1001E000F5FE7AC0C1E0B39982CF992309F488CF94
:1001F000C79AF89410926800789451E090E0B29910
:1002000081CF222309F487CFC69AF8941092660012
:10021000789461E020E0B19980CF332309F486CF50
:10022000C59AF89410926500789471E030E0B09926
:100230007FCF442309F485CFC49AF89410926700C5
:100240007894E1E040E07DCFC79850E091E058CF4E
:10025000C498E0E041E075CFC69860E021E05BCF54
:10026000C59870E031E062CFE1E03CCF51E076CF5D
:1002700061E081CF71E08CCFC59AF894109265004F
:10028000789471E031E052CFC79AF89410926800E8
:10029000789451E091E034CFC49AF89410926700BA
:1002A0007894E1E041E04DCFC69AF8941092660050
:1002B000789461E021E02FCF00B3909816CF02FF31
:1002C00007C0F2FE07C0F1E010CFF0B2909A0DCF58
:1002D000F0E00BCFF2E009CFC2E007CFC0E005CFDE
:1002E00004FF0CC0F4FE08C0B1E0FFCE03FF0AC05B
:1002F000F3FE06C0A1E0F9CEB2E0F7CEB0E0F5CE55
:0C030000A2E0F3CEA0E0F1CEF894FFCF15
:00000001FF
